:020000040800F2
:10000000200600209D01000845270008592500080A
:1000100009270008F50800088D30000800000000DE
:10002000000000000000000000000000B5280008EB
:100030001509000800000000472700088D29000866
:10004000B7010008B7010008B7010008B7010008B0
:10005000B7010008B7010008B7010008B7010008A0
:10006000B7010008B7010008B7010008B701000890
:10007000B7010008B7010008B7010008B701000880
:10008000B7010008B7010008B7010008B701000870
:10009000B7010008B7010008B7010008B701000860
:1000A000B7010008B7010008B7010008B701000850
:1000B000B7010008B7010008B7010008B701000840
:1000C000B7010008B7010008B7010008B701000830
:1000D000B701000855300008B7010008B701000853
:1000E000B7010008B7010008B7010008B701000810
:1000F000B7010008B7010008392A0008B701000855
:10010000B7010008B7010008B7010008B7010008EF
:10011000B7010008B7010008B7010008B7010008DF
:10012000B7010008B7010008B7010008B7010008CF
:10013000B7010008B7010008B7010008B7010008BF
:10014000B7010008B7010008B7010008B7010008AF
:10015000B7010008B7010008B7010008B70100089F
:10016000B7010008B7010008B7010008B70100088F
:10017000B7010008B7010008B7010008000000003F
:10018000B7010008B7010008DFF80CD000F05CFAF6
:1001900000480047BD390008200600200648804777
:1001A00006480047FEE7FEE7FEE7FEE7FEE7FEE75C
:1001B000FEE7FEE7FEE7FEE7292A000889010008BE
:1001C0002DE9F05F0546002092469B46884606468C
:1001D000814640241BE0284641464746224600F01F
:1001E0006AF853465A46C01A914110D31146184630
:1001F000224600F051F82D1A67EB01084F462246BF
:100200000120002100F048F817EB00094E41201EA4
:10021000A4F10104DFDC484631462A464346BDE8E6
:10022000F09FD2B201E000F8012B491EFBD27047CB
:100230000022F6E710B513460A4604461946FFF7B2
:10024000F0FF204610BD00F0004230F000400AD020
:10025000C10D01F56071C0F3160042EA0151C208F8
:1002600040071143704700200146704730B50B46E8
:10027000014600202022012409E021FA02F59D42D6
:1002800005D303FA02F5491B04FA02F52844151EAA
:10029000A2F10102F1DC30BD202A04DB203A00FA91
:1002A00002F1002070479140C2F1200320FA03F3CD
:1002B000194390407047202A04DB203A21FA02F0CB
:1002C0000021704721FA02F3D040C2F12002914090
:1002D0000843194670472DE9FE4F804681EA030026
:1002E000C00F0C46009021F0004123F00045B8EB10
:1002F0000200A94105D24046214690461C460B46C5
:10030000024623F00040104347D0270DC7F30A00F0
:10031000C3F30A510290401A019040286BDAC3F3EC
:10032000130040F4801B0098924620B10023D2EBCA
:10033000030A63EB0B0B01985946C0F1400250468B
:10034000FFF7AAFF06460D4650465946019A00F0AF
:100350008DF910EB08006141002487EA115284EA0C
:10036000E7731A4340D0009A62B3019A012A4FEA18
:10037000075215DC001B61EB02014FF0004202EA5C
:100380000752CDE90042001C41F5801132462B4650
:1003900000F08DF903B0BDE8F08F40462146F9E743
:1003A000001B61EB0201001C41F5801300185B414A
:1003B0002018A2F5001747EB030140EAD570B619E3
:1003C0006D4111E06D084FEA360645EAC0754FEA07
:1003D0000752001B61EB0201001C41F58011490826
:1003E0004FEA30000019514132462B4603B0BDE8B8
:1003F000F04F00F04DB90098012240000023D0EBEF
:10040000020263EBE073009821464FEAE074B8EB18
:10041000000061EB0401E9E783F000435BE781F052
:10042000004158E72DE9FE4F81EA030404F000443F
:1004300021F0004100944FF0000B23F0004350EAFC
:1004400001045ED052EA03045BD0C3F30A54C1F343
:100450000A552C44A4F2F3340194A0FB0254C1F3D6
:10046000130141F48011C3F3130343F4801301FB20
:10047000024400FB034E840A970A44EA815447EA87
:100480008357A4FB076802958D0A05FB07854FEA91
:10049000932C04FB0C542705029D4FEA065847EAAB
:1004A0001637B5EB08056EEB070C870E920E47EA80
:1004B000811742EA8312A7FB0201B6EB0B0164EB42
:1004C00000042B0D43EA0C335E1844EB1C50DA4653
:1004D0005146E7FB0201C5F313044FEA0B3343EA2D
:1004E00014534FEA0432019C43EA0603A4F10C04BE
:1004F0000294009CCDE900B400F0D9F803B0BDE847
:10050000F08F00200146F9E72DE9F04D81EA030460
:1005100004F0004B21F0004514464FF0000A23F090
:10052000004150EA050220D054EA01021DD0C5F373
:100530000A570246C5F31303C1F31300C1F30A5669
:1005400040F4801543F48013A7EB0608101BD64631
:1005500008F2FD3873EB050002D308F1010801E051
:1005600092185B41B8F1000F03DA00200146BDE8A4
:10057000F08D00204FF48011064684460EE0171BD4
:1005800073EB050705D3121B63EB050306434CEA27
:10059000010C49084FEA300092185B4150EA01070C
:1005A000EDD152EA030012D082EA040083EA050189
:1005B000084305D0101BAB4106D20122002306E000
:1005C00000224FF0004302E06FF0010253101AEBDB
:1005D00006004CEB085110EB0A0041EB0B01BDE8A3
:1005E000F04D00F055B8C1F30A52C1F3130140F2C7
:1005F000FF3341F480119A4202DA0020014670472D
:1006000040F233439A42A2F2334202DC5242FFF7F5
:1006100052BEFFF741BE000030B5041E71F1000468
:1006200004DB4FF00044404264EB0101141E73F1FF
:10063000000405DB1C464FF00043524263EB040309
:10064000994208BF904230BD064C074D06E0E06875
:1006500040F0010394E8070098471034AC42F6D309
:10066000FFF796FDC43D0008E43D0008202A06DBA4
:10067000CB17203A41FA02F043EAE07306E041FA70
:1006800002F3D040C2F1200291400843194670475E
:1006900010B5141E73F1000408DA401C41F100018A
:1006A00092185B411A4301D120F0010010BD2DE9E1
:1006B000F04D92469B4611B1B1FA81F202E0B0FAD8
:1006C00080F220329046FFF7E7FD04460F4640EAED
:1006D0000A0041EA0B0153465A46084313D011461B
:1006E00053EA010019D0C8F140025046FFF7E3FD7C
:1006F00005460E46504659464246FFF7CDFD084393
:1007000005D0012004E020463946BDE8F08D0020E8
:10071000054346EAE0762C4337430A986305E40A2A
:10072000A0EB08000022FD0A44EA47540A3002D533
:1007300000200146E9E7010510196941DDE9084596
:1007400000196941BDE8F04DA2E710B5044608461E
:1007500000F012F80321012000F022F820F46000DC
:1007600004F0070140EA41510322012000F096F80D
:10077000BDE8104000F0B2B810B5044603210220D5
:1007800000F00EF80121A14020F47F40C9B240EAF8
:1007900001210322BDE81040022000F07FB80000D4
:1007A0002DE9FC410E4600210D460C46009100F05B
:1007B0000700402141EAC0008DF804006FF07F4738
:1007C0003B46012201A90A4800F0AFFE3B463246F3
:1007D0006946074800F0FCFD684604E0015D641CC2
:1007E00001EB0525E4B2B442F8D32846BDE8FC810C
:1007F000C801002070B5012401F020FF00F032F89C
:10080000012000F0E5F801210420FFF7C9FF0546AB
:10081000014605A002F03CFC05F00F00042800D0C2
:100820000024204670BD00006164373139303A3011
:100830007825580A0000000070B50C4605460321D3
:100840000220FFF7ADFF20F00F0040EAC50004F0E2
:100850000701BDE87040084340F010010322022068
:1008600000F01CB81CB501208DF80000FF208DF8A9
:1008700001008DF804008DF802008DF805008DF858
:1008800003008DF806006FF07F4307226946024897
:1008900000F04BFE1CBD0000C801002017B583B05E
:1008A000002100914007800E01918DF8000004ABFB
:1008B0001146684605E000BF13F8014B4454491E39
:1008C000C9B20029F8D101466FF07F430248521C9B
:1008D00000F02BFE06B010BDC801002003480449FB
:1008E0000A69520601D5401EFAD27047FFFF0F0079
:1008F00000000240FEE7000030B50023044D521E08
:1009000003E0CC5C44405B1C285D9342F9DB30BDC6
:10091000AC3C0008704772B6FEE72DE9F041044692
:10092000876D00F071F9064694F83500002502281D
:1009300006D08020606584F834500120BDE8F08145
:100940002068016821F0160101602068416921F0EA
:1009500080014161206C08B9A06C20B12068016859
:1009600021F0080101602068016821F001010160A7
:100970000CE000F049F9801B052807D920206065AC
:10098000032084F8350084F83450D7E720680068E5
:10099000C007EED194F85C103F208840B860012079
:1009A00084F8350084F834500020C7E790F83510FB
:1009B000022903D08021416501207047052180F87C
:1009C00035100068016821F00101016000207047C6
:1009D00070B5044600F018F90546601C02D00448C2
:1009E0000078044400F010F9401BA042FAD370BD17
:1009F0000C0000202DE9F84FDFF8BCA100220125F2
:100A00000AF1040B03264FF00F090BF1040E00BF8F
:100A10000B6805FA02F42340A34270D10F7907F066
:100A20000307012F01D0022F16D187684FEA420831
:100A300006FA08FC27EA0C07D1F80CC00CFA08FCEF
:100A40004CEA070CC0F808C04768A7430C79C4F308
:100A5000001494403C4344600C79E443A4070AD05A
:100A6000C4684FEA420C06FA0CF7BC438F6807FAD9
:100A70000CF72743C7600C7904F00304022C12D151
:100A8000D40800EB840CDCF820405707FF0E09FA6D
:100A900007F824EA0804D1F8108008FA07F848EAB1
:100AA0000408CCF8208004684FEA420C06FA0CF7E0
:100AB000BC430F7907F0030707FA0CF727430760D9
:100AC0004C6814F4403F70D03C4C276847F4804792
:100AD0002760246822F0030704F480440094384C13
:100AE00007EB040CDCF8084897074FEA177809FA77
:100AF00008F7BC43334FB84202D1002724E054E04A
:100B0000314FB84201D101271EE0304FB84201D128
:100B1000022719E02E4FB84201D1032714E02D4FD0
:100B2000B84201D104270FE02B4FB84201D105276D
:100B30000AE02A4FB84201D1062705E0284FB84203
:100B400001D1072700E0082707FA08F72743CCF868
:100B50000878DAF800405746D1F804C09C435FEAB1
:100B6000CC3C00D51C433C60DBF800405F46D1F82C
:100B700004C09C435FEA8C3C00D51C433C60DEF81B
:100B800000407746D1F804C09C435FEACC2C00D5E6
:100B90001C433C60084F0C373C68D1F804C09C43B0
:100BA0005FEA8C2C00D51C433C60521C102AFFF4D9
:100BB0002FAFBDE8F88F0000003C014044380240F0
:100BC00000300140000002400004024000080240E2
:100BD000000C0240001002400014024000180240C5
:100BE000001C02400069084000D0012070474269A3
:100BF00021EA02030A4043EA0241816170470AB1D7
:100C0000816170470904FBE7014880687047000074
:100C10000C0000200248816802781144816070470E
:100C20000C0000200B4810B5016841F40071016010
:100C3000016841F480610160016841F480710160E4
:100C4000032000F06FF80F2000F006F800F024F801
:100C5000002010BD003C024070B50D4D04464FF41D
:100C60007A712878B1FBF0F00A490968B1FBF0F01D
:100C700000F0FFFD48B9102C07D200222146501E7B
:100C800000F030F800206C6070BD012070BD0000E5
:100C90000C000020180000200A4808B5016841F443
:100CA00080410160006800F4804000900548001F0A
:100CB000016841F080510160006800F080500090B0
:100CC00008BD000044380240002809DB00F01F0284
:100CD000012191404009800000F1E020C0F800119E
:100CE00070470000F0B40E4B1B680C46C3F30223A0
:100CF000C3F10705042D00D90425191D072901D2C8
:100D0000002300E0DB1E012606FA05F1491E214002
:100D100099409E40761E16403143F0BC02F0C8B99F
:100D20000CED00E0064900F0070208684FF6FF03EB
:100D3000184040EA0220034A104308607047000050
:100D40000CED00E00000FA05BFF34F8F0548016885
:100D5000054A01F4E06111430160BFF34F8F00BF0A
:100D6000FDE700000CED00E00400FA052DE9F04776
:100D70000E46050065D0DFF81481D8F80000F7B200
:100D800000F00700B04207D288F80070D8F80000E1
:100D900000F00700B04254D128683D4C810712D5BD
:100DA000400703D5206840F4E05020602878000711
:100DB00003D5206840F4604020602068A96820F0D6
:100DC000F000084320602878C0072DD030496868BB
:100DD0000839012812D0022813D0032811D009683D
:100DE000890700292DDA216821F0030101432160E0
:100DF000FFF70AFF814641F2883A0EE0096889034D
:100E0000EFE709688901ECE7FFF7FEFEA0EB0901B7
:100E1000514502D90320BDE8F0872068696800F0D9
:100E20000C00B0EB810FEFD1D8F80010404601F074
:100E30000701B14207D90770006800F00700B0420F
:100E400001D00120E7E72878400705D52068E96848
:100E500020F4E050084320602878000706D5206879
:100E6000296920F4604040EAC100206000F038F8B1
:100E70002168084AC1F30311515CC8400649086063
:100E800006480068FFF7E8FE0020C4E7003C024087
:100E900008380240AC3D0008180000201000002077
:100EA0000448054900680968044AC1F38221515C7D
:100EB000C84070471800002008380240BC3D0008B8
:100EC0000448054900680968044AC1F34231515C8D
:100ED000C84070471800002008380240BC3D000898
:100EE000154810B5006810F00C02144813D04110DA
:100EF000042A0FD0082A0ED10F4C241F2268236821
:100F000002F03F025B0207D52068C0F38810A0FB07
:100F1000010106E0084610BD2168C1F38811A1FB5C
:100F200000010023FFF74CF92168C1F30141491C7E
:100F30004900B0FBF1F010BD083802400024F40075
:100F40002DE9F84F04006ED02078DFF84C93C007ED
:100F5000A9F104054AD009F104000168C1F3810137
:100F6000012908D00068C0F3810002280AD1D9F80D
:100F70000000400206D52868800337D56068002845
:100F8000E1D033E06068B0F5803F10D0B0F5A02F1D
:100F9000286810D020F480302860286820F4802051
:100FA00028606068A8B1FFF72FFE06460DE02868AC
:100FB00040F48030F4E740F480202860F7E700BF79
:100FC000FFF722FE801B642873D828688003F7D5BA
:100FD0000CE0FFF719FE064605E000BFFFF714FE20
:100FE000801B6428F0D828688003F7D42078DFF8C5
:100FF000AC8280074FF0000A3ED5A748001D01686B
:1010000011F00C0F08D00068C0F3810002280BD14A
:10101000D9F80000400207D42868800716D5E06898
:10102000012800D112E033E1E068B8B10120C8F82E
:101030000000FFF7E9FD064605E000BFFFF7E4FD0D
:10104000801B0228C0D828688007F7D52868216946
:1010500020F0F80040EAC10028600DE0C8F800A0C8
:10106000FFF7D2FD064604E0FFF7CEFD801B022805
:101070001FD828688007F7D42078000722D5864F2C
:1010800087486169703771B101210160FFF7BCFDCC
:10109000064604E0FFF7B8FD801B022809D838682F
:1010A0008007F7D50EE0C0F800A0FFF7ADFD0646BB
:1010B00005E082E0FFF7A8FD801B02287DD8386894
:1010C0008007F7D42078400768D5DFF8CCB1002737
:1010D0000BF13C0BDBF80000C0000BD4DBF8001078
:1010E00041F08051CBF80010DBF80000012700F040
:1010F000805000906B4E3068C00510D4306840F4CA
:1011000080703060FFF780FD009005E0FFF77CFD08
:101110000099401A022850D83068C005F6D55E4EB6
:10112000A0686C3601280FD00528306810D020F058
:1011300001003060306820F004003060A068B8B171
:10114000FFF762FD00900FE0306840F00100F4E727
:1011500040F004003060F7E7FFF756FD0099411AB0
:1011600041F28830814266D830688007F4D50EE0BD
:10117000FFF74AFD009007E0FFF746FD0099411A8E
:1011800041F28830814256D830688007F4D42FB1BC
:10119000DBF8001021F08051CBF80010A069C8B333
:1011A0003D49091D0968C1F3810102294AD002287D
:1011B000504607D0C8F8600000E03CE0FFF724FD8F
:1011C00004463BE04746C8F86000FFF71DFD0646B1
:1011D00005E000BFFFF718FD801B02282BD8286808
:1011E0008001F7D4D4E907010843A16A2E4A4908CF
:1011F00002EB0141626A41EA8211084394F82C1023
:1012000040EA0161C9F8001001203866FFF7FCFCD4
:10121000044606E03EE000BFFFF7F6FC001B022894
:1012200009D828688001F7D534E000BFFFF7ECFC4F
:10123000001B022802D90320BDE8F88F286880012E
:10124000F4D427E00128F7D0D9F80000E26900F4CF
:10125000800191421CD1226A00F03F01914217D1D6
:1012600047F6C071626A0140B1EB821F10D1A26AD9
:101270004FF0FF3300F4403103EB5202B1EB024F69
:1012800006D194F82C1000F07060B0EB016F01D023
:101290000120D1E70020CFE7043802400000474298
:1012A000800E4742007000400000FFFF70B5040050
:1012B00009D0606A002540B125616561A56294F896
:1012C000510040B10CE0012070BD6068B0F5827F34
:1012D000F4D0E561F2E784F85050204600F044F87D
:1012E000022084F851002068016821F0400101606B
:1012F000A088218900F4827001F404410843A18987
:1013000001F400610843217C01F002010843217DC2
:1013100001F001010843218B01F400710843217F92
:1013200001F03801084394F8201001F080010843CF
:10133000218D01F40051084321680860A06904214F
:1013400001EA104094F8241001F0100108432168CC
:1013500048602068C16921F40061C16165650120B0
:1013600084F85100002070BD10B586B004461421E9
:101370006846FEF75DFF13492068884220D1124875
:101380000021026842F480520260006800F480503C
:1013900005900D481438026842F0010202600068AE
:1013A00000F001000590E02000900220CDE901014D
:1013B000032003900520049069460448FFF71AFBB8
:1013C00006B010BD00300140443802400000024029
:1013D0002DE9F84F044640680025984616460F460A
:1013E0004FF0040BB0F5827F01D1A06888B194F86A
:1013F0005000012818D0012084F85000FFF704FCA9
:10140000814694F851004FF0000A01280ED00225C1
:1014100082E084F851B013460A462046CDF8008099
:1014200000F036F9BDE8F88F0220FBE7002F72D0FC
:10143000002E70D084F851B0C4F854A0A763A687DA
:10144000E687C4F830A0A4F834A0A4F836A0C4F805
:1014500040A0C4F844A0A068B0F5004F09D12068AE
:10146000016821F0400101602068016821F4804199
:10147000016020680168490603D4016841F0400119
:101480000160E068D8B139E020688168C90709D0F7
:10149000007BA16B0870A06B401CA063E08F401E16
:1014A000E0870CE0FFF7B0FBA0EB0901414503D357
:1014B000B8F1FF3F03D036E0B8F1000F33D0E08F32
:1014C0000028E1D11DE020688168C90709D0C06803
:1014D000A16B0880A06B801CA063E08F401EE0879A
:1014E0000CE0FFF791FBA0EB0901414503D3B8F1F4
:1014F000FF3F03D017E0B8F1000F14D0E08F0028B1
:10150000E1D14A464146204601F01EF908B12020AB
:101510006065606D00B10125012084F8510084F8F8
:1015200050A028467EE70325F6E72DE9F84F04464C
:1015300090F8500000271D461646894601280DD018
:101540004FF0010B84F850B0FFF75EFB804694F833
:101550005100BA46012804D0022793E00220BDE8DA
:10156000F88FB9F1000F73D0002E71D0032084F8EA
:101570005100C4F854A0C4F83090A686E686C4F89A
:1015800038A0A4F83CA0A4F83EA0C4F844A0C4F835
:1015900040A0A068B0F5004F09D12068016821F093
:1015A000400101602068016841F4804101602068C9
:1015B0000168490603D4016841F040010160E06818
:1015C000B0F5006F606803D030B3012E24D041E045
:1015D00008B1012E1CD1206B21680088C86006E08C
:1015E00020688168890709D5216B0988C160206B53
:1015F000801C2063E08E401EE08609E0FFF704FBBC
:10160000A0EB0800A84202D3681C01D031E07DB3F2
:10161000E08E0028E4D120E0206B21680078087378
:1016200006E020688168890709D5216B0978017374
:10163000206B401C2063E08E401EE0860AE0FFF72E
:10164000E3FAA0EB0800A84203D3681C02D010E024
:1016500017E06DB1E08E0028E3D1424629462046CE
:1016600001F0A0F808B120206065A06818B106E07C
:10167000FFE7032706E02068C16880680090606D7E
:1016800000B1012784F851B084F850A0384666E7CD
:101690002DE9F84F044690F8500000270A9E1D4699
:1016A00092468B464FF0010901280ED0012084F8A4
:1016B0005000FFF7A9FA804694F8510061680128AC
:1016C0000CD0B1F5827F07D102E00220BDE8F88F8F
:1016D000A16809B9042801D00227C2E0BBF1000FBC
:1016E00027D0BAF1000F24D01DB394F8510004287C
:1016F00002D0052084F8510000206065C4F838A0AD
:10170000E587A587C4F830B0E586A58620646064C7
:1017100020680168490603D4016841F04001016076
:10172000E068B0F5006F606805D0E8B3012D46D0E1
:101730007FE0012795E008B1012D39D1206B2168A8
:101740000088C860206B801C2063E08E401EE0860D
:101750002EE02068816889070FD5E18E69B1B9F163
:10176000010F0AD1216B0988C160206B801C2063A6
:10177000E08E401EE0864FF0000920688168C907AE
:101780000CD0E18F51B1C068A16B0880A06B801CA8
:10179000A063E08F401EE0874FF00109FFF734FAA5
:1017A000A0EB0800B04200E009E001D3701C50D16A
:1017B000E08E0028CDD1E08F0028CAD13FE0206B19
:1017C000216800780873206B401C2063E08E401E67
:1017D000E0862EE02068816889070FD5E18E69B127
:1017E000B9F1010F0AD1216B09780173206B401CFC
:1017F0002063E08E401EE0864FF00009206881687B
:10180000C9070CD0E18F51B1C068A16B0870A06B03
:10181000401CA063E08F401EE0874FF00109FFF7F6
:10182000F3F9A0EB0800B04202D3701C01D010E025
:101830007EB1E08E0028CDD1E08F0028CAD142468B
:101840003146204600F0AEFF28B101272020606518
:1018500007E0032705E0A06818B92068C168806820
:101860000090012084F85100002084F85000384690
:101870002CE710B5401EB0F1807F01D3012010BDD0
:101880004FF0E02460610F21601701F011FC00208F
:10189000A06107202061002010BD70477047000044
:1018A00090F83D10012901D001207047022180F8F5
:1018B0003D1000681149884214D0B0F1804F11D01A
:1018C0000F4988420ED00F4988420BD00E498842FA
:1018D00008D00E49884205D00D49884202D00D49F2
:1018E000884204D1816801F00701062903D001680C
:1018F00041F001010160002070470000000001403C
:101900000004004000080040000C004000040140BA
:101910000040014000180040704770B50446006860
:1019200001694FF00005C943890715D4C168C9434F
:10193000890711D4E91E01610120207720688069A0
:101940008007204602D0FFF7E7FF04E000F0C2F86E
:10195000204600F0AFF9257720680169C94349079F
:1019600017D4C168C943490713D46FF0040101615A
:10197000022020772068806910F4407F204602D042
:10198000FFF7CAFF04E000F0A5F8204600F092F946
:10199000257720680169C943090716D4C168C9437E
:1019A000090712D46FF00801016104202077206834
:1019B000C0698007204602D0FFF7AEFF04E000F0C8
:1019C00089F8204600F076F9257720680169C94337
:1019D000C90617D4C168C943C90613D46FF01001F2
:1019E0000161082020772068C06910F4407F2046FC
:1019F00002D0FFF791FF04E000F06CF8204600F001
:101A000059F9257720680169C943C90708D1C16818
:101A1000C943C90704D1891E0161204600F04BF972
:101A200020680169C943090609D4C168C943090688
:101A300005D46FF0800101612046FFF72EFF20687A
:101A40000169C943490609D4C168C943490605D497
:101A50006FF040010161204600F02EF92068016915
:101A6000C94389060BD4C168C943890607D46FF0FE
:101A7000200101612046BDE87040FFF70FBF70BD37
:101A800070B5044690F83C00002501280FD00120D5
:101A900084F83C006AB1042A0FD0082A11D00C2A1D
:101AA00013D00125002084F83C00284670BD022098
:101AB00070BD206801F038F8F4E7206801F064F8A0
:101AC000F0E7206801F096F8ECE7206801F0C6F82E
:101AD000E8E7000070B50068416A1F4C1F48237892
:101AE0000268012B25D0A38819446388CB1A53635D
:101AF000628803688A1A9A6362880068891AC163D7
:101B0000E068401CE060A168884211D9144D0022B1
:101B10001146284600F0FAFF00220421284600F072
:101B2000F5FF00220821284600F0F0FF0020E060C9
:101B300070BD6388CB1A03F226235363628803685F
:101B40008A1A02F226229A6362880068891A01F2D0
:101B50002621C16370BD00001C0000208001002010
:101B60000004014010B5040003D094F83D0010B10A
:101B700007E0012010BD002084F83C00204600F062
:101B80001EF8022084F83D00211D206800F05AFF55
:101B9000012084F8460084F83E0084F83F0084F871
:101BA000400084F8410084F8420084F8430084F83F
:101BB000440084F8450084F83D00002010BD7047C3
:101BC00030B500250446022249B1042912D0082963
:101BD0004CD094F84100012853D0012030BD94F836
:101BE0003E000128F9D184F83E202068C26842F006
:101BF000020209E094F83F000128EED184F83F206A
:101C00002068C26842F00402C2600122206800F02D
:101C10007DFF21492068214A884201D0904203D1AA
:101C2000436C43F4004343642068884213D0B0F10E
:101C3000804F10D01A4988420DD01A4988420AD0E4
:101C40001949884207D0904205D01849884202D0ED
:101C50001749884204D1816801F00701062903D0A1
:101C6000016841F001010160284630BD94F8400050
:101C70000128B2D184F840202068C26842F00802EE
:101C8000C2E784F841200C2901D00125ECE7206847
:101C9000C26842F01002B7E70000014000040140B2
:101CA0000004004000080040000C004000400140DB
:101CB0000018004070477047704770472DE9FE4F8D
:101CC0009F4C4FF47F42A7798DF809706079CDF869
:101CD00005002078D4F8011040EA01204FF47F017C
:101CE00001EA002141EA006102EA1022114341EABF
:101CF000106094490090884271D1DDF8052021469A
:101D00000020FEF7F9FDDDF80520611E515C8842D8
:101D100065D14FF4005100268B4DDFF830A2DFF87B
:101D20003082DFF830928B10103F4FF4C85B072FE2
:101D30007ED2DFE807F004366D55717FC0000120C8
:101D4000287085A001F0A4F920798DF804000128FD
:101D50000FD0022819D003286AD101220821504649
:101D600000F0D4FE012211034846FEF748FF7DA093
:101D7000BDE001220021504600F0C8FE012291037F
:101D80004046FEF73CFF7CA0B1E001220421504612
:101D900000F0BCFE012291034846FEF730FF7BA015
:101DA000A5E020798DF8040001280AD002280FD080
:101DB00003283DD14FF480514846FEF718FF78A024
:101DC00095E04FF480414046FEF711FF7AA08EE087
:101DD0004FF480414846FEF70AFF7DA087E027E0E8
:101DE00000224FF480414046FEF709FF00221146D1
:101DF0005446504600F08AFE00220421204600F09E
:101E000085FE00220821204600F080FE76A06EE0CC
:101E1000BDE8FE4FFEF798BFE57920798DF8040004
:101E2000294675A001F034F9774905EB8500088053
:101E3000BDE8FE8F20798DF80400012817D0022814
:101E400027D00328F4D1012219464C464846FEF714
:101E5000D6FE01222E7011032046FEF7D0FE5A4610
:101E60004FF4FA71022000F051FC68A03FE001221B
:101E70004046FEF7C4FE01222E7091034046FEF755
:101E8000BEFE5A464FF4FA71002000F03FFC63A0FA
:101E90002DE001224846FEF7B2FE01222E7091038A
:101EA0004046FEF7ACFE5A464FF4FA71012000F0AE
:101EB0002DFC5EA01BE020798DF8040001281AD0CB
:101EC00002282AD00328B3D1002219464C4648469E
:101ED000FEF795FE01222E7011032046FEF78FFEBD
:101EE0005A464FF4FA71022000F010FC53A0BDE8EE
:101EF000FE4F01F0CDB800224046FEF780FE0122E1
:101F00002E7091034046FEF77AFE5A464FF4FA715E
:101F1000002000F0FBFB4EA0E9E700224846FEF758
:101F20006EFE01222E7091034046FEF768FE5A466F
:101F30004FF4FA71012000F0E9FB4AA0D7E7000056
:101F400080000020535A48591C0000200004014022
:101F5000000402400010024053544152545F434D6C
:101F600044200A004D4F544F525F5A5F454E414244
:101F70004C45200A000000004D4F544F525F585FFF
:101F8000454E41424C45200A000000004D4F544F41
:101F9000525F595F454E41424C45200A0000000007
:101FA0004D4F544F525F5A5F454E415F544F474724
:101FB0004C45200A000000004D4F544F525F585FBF
:101FC000454E415F544F47474C45200A00000000F2
:101FD0004D4F544F525F595F454E415F544F4747F5
:101FE0004C45200A000000004D4F544F525F4449B9
:101FF0005341424C45200A005370656564203D20E2
:102000002564200A000000001E0000205A41786963
:102010007320464F5257415244200A005841786974
:102020007320464F5257415244200A005941786963
:102030007320464F5257415244200A005A41786952
:1020400073204241434B57415244200A0000000094
:102050005841786973204241434B57415244200A0A
:10206000000000005941786973204241434B5741B9
:102070005244200A0000000070B5044620680C306D
:1020800050E8001F21F4907140E80012002AF5D1B9
:102090002068143050E8001F21F0010140E80012D0
:1020A000002AF5D1206B012809D120680C3050E8B6
:1020B000001F21F0100140E80012002AF5D120682D
:1020C00040694FF0200241064FF0000015D521680D
:1020D000143151E8003F23F0400341E80035002D62
:1020E000F5D1A16B49B109480865A06BFEF75EFC0C
:1020F00050B1A06B016D884706E0E08584F83E2072
:1021000020632046FFF7DAFD002070BD752D000822
:1021100070470000F8B5016804460868CA684B6952
:1021200010F00F0F4FF0000559D003F0010602F434
:102130009077374365D0C10705D0D10503D5216C11
:1021400041F001012164410705D5D90703D0216C75
:1021500041F002012164810705D5D90703D0216C24
:1021600041F004012164010707D502F02001314349
:1021700003D0216C41F008012164216C00293AD080
:10218000800604D5900602D5204600F025FE206882
:102190004069216CC0F38010090700D460B3204669
:1021A00000F0F3FD20684069400621D52068143016
:1021B00050E8001F21F0400140E80012002AF5D14C
:1021C000A06BA8B16C490165A06BFEF7EFFB00287E
:1021D00011D0A06B016D01B0BDE8F0400847830647
:1021E0000FD593060DD52046BDE8F84000F0F4BDAC
:1021F0002046FFF78DFFF8BD2046FFF789FF2564D5
:10220000F8BD266B2023012E79D1C60677D5D606D8
:1022100075D50868486800904869400640D5A16BAC
:10222000086840680004000CEAD0A28D8242E7D919
:10223000E085C869B0F5807F2DD020680C3050E86B
:10224000001F21F4807140E80012002AF5D12068B7
:10225000143050E8001F21F0010140E80012002A6C
:10226000F5D12068143050E8001F21F0400140E80B
:102270000012002AF5D184F83E30256320680C3026
:1022800050E8001F21F0100140E80012002AF5D1AB
:10229000A06BFEF742FBA08DE18D401A81B229E0D0
:1022A000A08DE18D401A81B2E08D0028A8D00029D0
:1022B000A6D020680C3050E8002F22F4907240E83D
:1022C0000026002EF5D12068143050E8002F22F0AF
:1022D000010240E80026002EF5D184F83E30256347
:1022E00020680C3050E8002F22F0100240E8002354
:1022F000002BF5D12046FFF7E0FCF8BDFFE705060F
:102300002BD5150629D594F83D002128F5D1A068D4
:10231000B0F5805F01D12069B0B1206A411C216213
:10232000216800784860E08C401E0004000CE084C6
:10233000E3D12068C16821F08001C1602068C168D4
:1023400041F04001C160D8E7206A0088C0F308006E
:102350004860206A801C2062E5E74006CDD5500623
:10236000CBD5CA68204622F04002CA6084F83D30CE
:1023700000F0F1F8C1E70000652D000870B5040019
:1023800004D094F83D00002510B106E0012070BD96
:1023900084F83C50204600F023F8242084F83D00C7
:1023A0002068C16821F40051C160204600F074FD2E
:1023B0002068016921F4904101612068416921F0A0
:1023C0002A0141612068C16841F40051C16025645F
:1023D000202084F83D0084F83E00002070BD0000FD
:1023E00010B586B0044614216846FDF721FF1E494A
:1023F0002068884236D11D480021026842F0100250
:102400000260006800F01000059018481438026857
:1024100042F001020260006800F0010005904FF4F4
:10242000C06000900220CDE9010103200390072045
:10243000049069460E48FEF7DDFA0E480068C16850
:1024400041F01001C1600B494FF4807244310948DA
:1024500000F012F8002211462520FEF743FC25204B
:10246000FEF732FC06B010BD0010014044380240B7
:10247000000002403C00002090F83E30202B0ED19E
:1024800059B152B190F83C30012B08D0012380F8AB
:102490003C300023036300F085BD0120704702201B
:1024A000704770472DE9F843044690F83D001F46F9
:1024B00016460D4620284CD1C5B1BEB194F83C005B
:1024C000012846D0012084F83C004FF00008C4F8F1
:1024D0004080212084F83D00FEF796FBA6848146CB
:1024E000E684A068B0F5805F03D004E00120BDE879
:1024F000F883206928B12E465FF0000584F83C80FF
:102500000EE00026FAE78021204600F066FDA0B923
:10251000AEB116F8010B21684860E08C401EE084E3
:10252000E08C4B464FF0000200970028EBD14FF0B3
:102530004001204600F051FD30B10320D7E735F8C7
:10254000020BC0F30800E6E7202084F83D000020DD
:10255000CDE70220CBE77047FEE7000010B50C4C3A
:1025600010212046FEF73EFB38B91420FEF730FA62
:1025700010212046FEF736FB08B1002010BD1021C7
:102580002046FEF72FFB0028F9D0012010BD0000E7
:102590000010024010B50C4C08212046FEF722FB2B
:1025A00038B91420FEF714FA08212046FEF71AFB6A
:1025B00008B1002010BD08212046FEF713FB0028BB
:1025C000F9D0012010BD0000001002400B4800B5FA
:1025D000026887B0002142F010020260006800F03B
:1025E000100005901820CDE90001012002906946F5
:1025F0000348FEF7FFF907B000BD00003038024085
:10260000001002400C4810B50A4901604FF4E13156
:102610004160002181600C22C160C0E90412816127
:10262000C161FFF7ABFE002803D0BDE81040FEF704
:1026300072B910BD001001403C0000202DE9F043AC
:102640002D4887B00024016841F480510160006882
:1026500000F48050059028481438016841F00101C9
:1026600001600068DFF8949000F0010005900122FD
:1026700010214846FEF7C3FAA0200225CDE9000547
:1026800002AA0326052782E8D00069464846FEF7DD
:10269000B1F9102000904FF00108CDE9018469469E
:1026A00048460394FEF7A6F94020CDE9000402AAAB
:1026B000694682E8D0004846FEF79CF91148104967
:1026C00001604FF48271C0E901142902C0E905815B
:1026D0001821C0E90345C0E907140A214462C0E992
:1026E0000A41FEF7E3FD002210214846FEF787FA73
:1026F00007B0BDE8F083000044380240000002400B
:1027000000300140C8010020FEE700000B4B9A603A
:102710000022DA6099800A4B40B1012809D00228D2
:102720000AD101220821184600F0F0B90122002147
:10273000F9E701220421F6E7704700001C000020A1
:1027400000040140FEE77047F8B5044640684FF4C6
:102750008273984221D1A0684FF48065B0F5004F94
:1027600001D0A8420AD12068066826F0400606601B
:102770006068984211D1A068A8420ED000920B4622
:1027800000228021204600F039F8002804D0606D36
:1027900040F0200060650320F8BD00920B46002247
:1027A0000121EFE738B504461248134B0068B0FB2F
:1027B000F3F04FF47A73584300906068B0F5827F6D
:1027C0000DD10B46009200228021204600F016F821
:1027D00070B1606D40F020006065032038BD009846
:1027E00030B1401E009020688068C0430006F6D5D6
:1027F000002038BD1800002000366E012DE9F84396
:102800001E46914688460446089DFEF7FDF9401B8A
:10281000351AFEF7F9F9074625480068C0F3CB30B2
:10282000684338E0701C37D0FEF7EEF9C01BA842B1
:1028300003D215B1009860B32CE02068416821F004
:10284000E00141606068B0F5827F0BD1A068B0F50F
:10285000004F02D0B0F5806F04D12068016821F0EC
:1028600040010160A06AB0F5005F09D120680168ED
:1028700021F4005101602068016841F400510160B9
:10288000012084F85100002084F850000320BDE8A6
:10289000F8830025401E00902068816838EA010016
:1028A00004D000214945BDD10020F0E70121F9E71E
:1028B00018000020704700002DE9F0412F4886B035
:1028C000016841F002010160016801F00201059117
:1028D000016841F004010160016801F00401059103
:1028E000016841F0100101600068012400F010004F
:1028F00005904FF40056CDE90064DFF8848002258E
:1029000069464046CDE90245FEF774F8A7036946DB
:1029100040460097FEF76EF8CDE90064194E69460F
:102920003046CDE90245FEF765F8CDE90074694609
:102930003046CDE90245FEF75DF8E002CDE900043E
:1029400069463046CDE90245FEF754F82003CDE94B
:10295000000469463046CDE90245FEF74BF8CDE963
:1029600001540320CDE903504FF4E0700090694614
:102970000548FEF73FF806B0BDE8F0813038024068
:10298000000402400010024000080240FEF742B975
:1029900030B593B030216846FDF74AFC14210CA8ED
:1029A000FDF746FC1E480025016841F0805101609A
:1029B000006800F0805011901A48016841F480418D
:1029C00001600068022400F4804011900120009012
:1029D000000401908001CDE90640082008904FF4E2
:1029E000A870CDE9090404200B906846FEF7A8FA08
:1029F00008B172B6FEE70CA90F2081E831004FF450
:102A0000A0500F904FF48050109005210CA8FEF7B5
:102A1000ADF9002801D072B6FEE713B030BD00005A
:102A200040380240007000400248016841F47001E3
:102A30000160704788ED00E00148FEF76EBF0000BE
:102A400080010020F0B50268254C264D264E274F08
:102A5000274B4FF0804CA04209D0604507D0A842D8
:102A600005D0B04203D0B84201D0984204D122F040
:102A7000700E4A6842EA0E02A0421BD0604519D08F
:102A8000A84217D0B04215D0B84213D0984211D006
:102A9000184DA8420ED0184DA8420BD0174DA84291
:102AA00008D0174DA84205D0164DA84202D0164DA9
:102AB000A84203D122F44075CA682A434D6922F026
:102AC00080022A4302608A68C2620A688262A04267
:102AD00001D0984201D10969016301214161F0BD32
:102AE000000001400004004000080040000C0040CD
:102AF0000004014000400140004401400048014002
:102B000000180040001C00400020004010B501F0FB
:102B10001F030121046A99408C430462016A9A40B0
:102B20001143016210BD0000F0B5026A22F00102FB
:102B30000262036A42688469124E24F073050C68CD
:102B40002C4323F002058B682B430D4DA84201D086
:102B5000B04205D123F00807CB683B4323F00403C0
:102B6000A84201D0B04205D14D6922F4407215430C
:102B70008A692A4342608461496841630362F0BD07
:102B80000000014000040140F0B5026A22F010028A
:102B90000262026A436884690D6824F4E64444EAE8
:102BA00005248D6822F0200242EA05120F4D104ED6
:102BB000A84201D0B04206D1CF6822F0800242EA9A
:102BC000071222F04002A84201D0B04207D14D695D
:102BD00023F4406343EA85038D6943EA8503436038
:102BE0008461496881630262F0BD00000000014019
:102BF00000040140F0B5026A22F480720262026AA7
:102C00004368C46922F4007224F073050C68124E04
:102C10002C438D6842EA05220E4DA84201D0B042F5
:102C200006D1CF6822F4006242EA072222F48062D1
:102C3000A84201D0B04207D14D6923F4405343EA82
:102C400005138D6943EA05134360C4614968C16394
:102C50000262F0BD000001400004014030B5026A8C
:102C600022F480520262046A4268C3690D6823F448
:102C7000E64343EA05238D6824F4005444EA05340E
:102C8000084DA84202D0084DA84204D14D6922F453
:102C9000804242EA85124260C3614968016404626D
:102CA00030BD0000000001400004014030B529485B
:102CB00089B00024016841F00201016000682749E1
:102CC00000F002000790244D4FF6FF700D60C860C1
:102CD0005320C1E901040C6108464C61FEF742FF34
:102CE000302000901E484088CDE901040820CDE93D
:102CF000030405940022694618480694FEF7C0FEB6
:102D0000042269461548FEF7BBFE082269461348AF
:102D1000FEF7B6FE1148FEF7C3FD00210F48FEF78F
:102D20004FFF04210D48FEF74BFF08210B48FEF72B
:102D300047FF012200212846FFF7E8FE0122042177
:102D40002846FFF7E3FE012208212846FFF7DEFEB2
:102D500009B030BD44380240000401408001002029
:102D60001C00002010B5806B0021C185C184FFF7D5
:102D7000CFF910BD10B5806B0021C185202280F8ED
:102D80003E200163FEF79AFF10BD01680C3151E847
:102D9000002F22F4907241E80023002BF5D1016846
:102DA000143151E8002F22F0010241E80023002BEA
:102DB000F5D1016B012909D101680C3151E8002FCF
:102DC00022F0100241E80023002BF5D1202180F8E9
:102DD0003E1000210163704708B590F83E1022298B
:102DE00001D0022008BD82684FF480539A4201D17D
:102DF000016921B1816A9A421BD04AB10AE0026896
:102E0000816A5268C2F308020A80816A891C08E05C
:102E1000026972B10268526802F07F020A70816A28
:102E2000491C8162C18D491E0904090CC18503D06A
:102E300019E002685268F1E70168CA6822F02002CE
:102E4000CA600168CA6822F48072CA6001684A696F
:102E500022F001024A61202180F83E10016B012915
:102E600003D0FFF71EFB002008BD002101630168AD
:102E70000C3151E8002F22F0100241E80023002B12
:102E8000F5D101680A68D20602D50A68496800913E
:102E9000818DFEF712FFE6E770B504460068016910
:102EA000E26821F44051114301612169A068E2699F
:102EB00008436169114308432168CA6849F20C63F9
:102EC0009A430243CA6020684169A26921F44071B3
:102ED0001143416131492068884202D0304988421B
:102EE00002D1FDF7EDFF01E0FDF7DAFFE269002313
:102EF000192164253226B2F5004F626828D0A0FB64
:102F00000101930F9200FDF75BF90146B0FBF5F06C
:102F10006FF01802504301EB800006EB0010B0FB8D
:102F2000F5F000F0F002B1FBF5F002EB0012B1FB9E
:102F3000F5F06FF01803584301EB800006EB00102A
:102F4000B0FBF5F000F00F0021681044886070BD00
:102F5000A0FB010192185B41FDF732F90146B0FB7D
:102F6000F5F00201B1FBF5F06FF01803584301EBE7
:102F7000800006EBC000B0FBF5F000F0F80002EBBB
:102F80004002B1FBF5F0584301EB800006EBC000B6
:102F9000B0FBF5F000F00700D6E70000001001409C
:102FA0000014014081628285C285002101642222D1
:102FB00080F83E2080F83C100168CA6842F48072B4
:102FC000CA6001684A6942F001024A610068C1684A
:102FD00041F02001C160002070472DE9F041984682
:102FE00017460E460446069D27E0681C25D02DB1E5
:102FF000FDF70AFEA0EB0800A8421ED920680C309D
:1030000050E8001F21F4D07140E80012002AF5D1E9
:103010002068143050E8001F21F0010140E8001240
:10302000002AF5D1202084F83D0084F83E000020DD
:1030300084F83C000320BDE8F0812068006836EA8F
:10304000000004D00020B842CFD00020F3E70120D8
:10305000F9E700000B4810B500680168C943C906CC
:103060000AD4016840680748FFF706F84FF48072F9
:1030700005490448FFF700FABDE810400148FFF792
:1030800049B800003C00002080000020FEE700005E
:103090000FB4054B10B503A9044A029800F0EAF8F2
:1030A00010BC5DF814FB0000A53900082C000020BE
:1030B0000907090E002804DB00F1E02080F8001465
:1030C000704700F00F0000F1E02080F8141D7047F9
:1030D00002E008C8121F08C1002AFAD170477047E1
:1030E000002001E001C1121F002AFBD1704700003F
:1030F0002DE9FF5F82B00021DDE90430020DDDF82B
:1031000040B0034318D044F61050A2F2FF324243BD
:103110001514119801281FD0A5EB0B00401C5FEA85
:10312000000A4FF000064E4FDFF83891B046504687
:1031300015D5CAF1000413E0119801244AA301280F
:1031400001D16FEA0B010298119AC0E90031C0E980
:10315000024206B0BDE8F09FCBF10000DFE7044675
:103160000021404A491842EB0450CDE9001012E01A
:10317000E00707D032463B4640464946FDF752F944
:103180008046894632463B4610461946FDF74AF9C5
:1031900006460F466410002CEAD1DDE90401DDE9A2
:1031A0000023BAF1000F06DAFDF73CF942464B4620
:1031B000FDF738F905E0FDF7A7F942464B46FDF764
:1031C000A3F904460E460022284BFDF725FA03D842
:1031D0004FF0FF30014607E00022254B20463146E4
:1031E000FDF779F8FDF7FFF9102409E0002C0ADB60
:1031F0000A220023FCF7E4FF039B30321A55641EB9
:1032000050EA0102F2D1641C039AC4F11103144480
:10321000119A012A03D0012208430DD10AE0084384
:1032200004D000204FF0110B119072E7A3EB0B05B7
:103230006D1E0DE05B4504DD4FF0000205F1010558
:1032400004E003DA4FF00002A5F10105002AECD0FA
:1032500002981199C0E90231C0E9004579E7000000
:10326000000014400000F03F300000000000F04378
:103270000000E03F2DE9FF4F95B09B46894606468A
:1032800000250FE2252877D100242746F84A01219E
:10329000059400E0044316F8013F203B01FA03F0D7
:1032A0001042F7D130782A2811D06FF02F033078F0
:1032B000A0F13002092A16D8059A44F0020402EB64
:1032C000820203EB42021044761C0590EFE759F8A6
:1032D000042B0592002A03DA504244F4005405906E
:1032E00044F00204761C30782E2816D116F8010F0F
:1032F00044F004042A280DD06FF02F023078A0F19A
:103300003003092B09D807EB870302EB4303C718E7
:10331000761CF3E759F8047B761C30786C280FD0C4
:1033200006DC4C2817D068280DD06A2814D104E098
:10333000742810D07A280FD10DE044F400140AE06C
:1033400044F4801401E044F440147278824202D1C3
:1033500004F58014761C761C307866280BD013DCBC
:10336000582877D009DC002875D04528F6D04628A3
:10337000F4D047281AD19DE118E0632835D064289D
:1033800079D0652812D195E1702873D008DC6728C0
:10339000F1D069286FD06E280DD06F2806D1B5E026
:1033A00073282CD0752875D0782874D05A46179970
:1033B00090476D1C75E1C4F30250022809D0032820
:1033C0000DD0D9F8001004280DD00D6009F10409C2
:1033D00067E1D9F80010EA17C1E90052F6E7D9F819
:1033E00000100D80F2E70D70F0E719F8041B8DF85E
:1033F000001000208DF80100EA46012003E059F892
:1034000004AB4FF0FF3061074FF0000102D40DE034
:1034100008F101018846B9420FDA8045F8DB1AF855
:1034200008100029F4D108E008F101018846814222
:10343000FADB1AF808100029F6D105985B46A0EBD4
:10344000080721463846179A00F094FA284400EB02
:10345000080507E04DE029E10DE01AF8010B5A4696
:1034600017999047B8F10108F7D25B4621463846D4
:10347000179A13E142E00A220092C4F302524FF07D
:10348000000A022A08D059F804CB032A4FEAEC714B
:103490000AD00DE029E02AE009F1070121F0070236
:1034A000F2E802C1914609E00FFA8CFC4FEAEC7198
:1034B000042A03D14FFA8CFC4FEAEC71002907DA99
:1034C0000A460021DCF1000C61EB02012D2202E032
:1034D000220504D52B228DF80420012203E0E20707
:1034E00001D02022F7E7904659E00A2102E010229D
:1034F0000DE010214FF0000A00910BE010224FF078
:10350000000A44F004040827009203E008224FF068
:10351000000A0092C4F30252022A05D059F804CBE3
:103520000021032A08D009E009F1070121F0070270
:10353000F2E802C1914605E01FFA8CFC042A01D191
:103540000CF0FF0C4FF00008220728D5702806D099
:10355000009B83F0100353EA0A0305D00EE04022DB
:103560008DF80420012208E05CEA010206D0302236
:103570008DF804208DF8050002229046009B83F010
:10358000080353EA0A030AD15CEA010201D1620787
:1035900005D530228DF804204FF001087F1E5828F1
:1035A00004D034A003900EA802900DE036A0F9E7F5
:1035B00053466046009AFCF703FE84460398825CFB
:1035C0000298401E029002705CEA0100F0D102985D
:1035D00006A9081A00F1200A600702D524F48034F5
:1035E00000E00127574502DDA7EB0A0000E00020BC
:1035F00000EB0A01009005984144401A0590E00351
:1036000006D45B462146179A059800F0B3F90544A5
:10361000002706E001A85A46C05D179990476D1C27
:103620007F1C4745F6DBE0030CD55B462146179A25
:10363000059800F09FF9054404E030205A46179998
:1036400090476D1C0099481E00900029F5DC08E0A9
:10365000029802995A460078491C0291179990479E
:103660006D1CBAF10001AAF1010AF1DC65E100006C
:103670000928010030313233343536373839616248
:10368000636465660000000030313233343536370C
:1036900038394142434445460000000000F058F9E3
:1036A0000544761C307800287FF4ECAD19B028462C
:1036B000BDE8F08F620700D4062709F1070222F067
:1036C000070CFCE80223E14603F000485FEA080C1F
:1036D00002D00FF2702C0DE05FEA045C02D50FF20D
:1036E000682C07E05FEAC47C02D00FF2602C01E096
:1036F000AFF2700C4FF0FF3823F00043CDF850C00C
:1037000065280CD006DC452809D046281DD047285E
:103710003DD13DE0662818D067287ED138E00021F1
:10372000112F01DB112000E0781CCDE9000106A972
:103730000EA8FFF7DDFCDDE90F010E9A03910021D1
:10374000009207F1010A04914DE04FF0004000970C
:10375000CDE9011006A90EA8FFF7CAFCDDE90F02AA
:1037600003920E9B11990022DDF80CA000930492A5
:1037700011B9791C00EB010AB7EB0A0004D4C0F1BF
:10378000FF3007F1010A0490AAEB0700019044E022
:10379000012F00DA01270021112F01DD112000E0A7
:1037A0003846CDE9000106A90EA8FFF7A1FCDDE926
:1037B0000F010E9A0391002104910092BA4621074D
:1037C0000CD40399514500DA8A46BAF1010F05DDA0
:1037D000009AAAF10101515C302908D0B84202DAFE
:1037E00010F1040F06DA0121CDE9011015E0AAF16C
:1037F0000101E9E7002805DC049901440491AAEBE2
:10380000000102E0411C514500DD8A460499401A3E
:10381000401C01904FF000400290200704D4019812
:10382000504501DBCDF8048000208DF84F00029850
:103830000DF14F07B0F1004F25D02B200E900298CC
:103840004FF0020800280CDA404202902D200E9022
:1038500007E00A210298FCF709FD3031029007F8D1
:10386000011DB8F10001A8F10108F2DC029800285E
:10387000EFD1791E0E980870307800F0200040F0EB
:10388000450007F8020D12A8C01B00F107081498A4
:10389000007800B1012000EB0A01019801EBE07112
:1038A00005984144401A401E0590E00306D45B464B
:1038B0002146179A059800F05DF8054414980078A1
:1038C00018B15A46179990476D1CE00324D55B4602
:1038D0002146179A059800F04DF805441CE004981D
:1038E000002807DBDDE90301884203DD0098405C26
:1038F000179901E0179930205A469047049805F12E
:103900000105401C04900198401E019004D12E2016
:103910005A46179990476D1CBAF10001AAF1010AA5
:10392000DDDC05E017F8010B5A46179990476D1C2E
:10393000B8F10001A8F10108F4DC5B462146179AB2
:103940000598ABE62D0000002B00000020000000D1
:103950002DE9F041044600251E461746880404D48C
:1039600005E039462020B0476D1C641EF9D5284675
:10397000BDE8F0812DE9F041044600251E46904641
:10398000C80301D5302700E02027880404D505E0CE
:1039900041463846B0476D1C641EF9D52846BDE83F
:1039A000F081000013B54FF47A7301226946024892
:1039B000FEF778FD00981CBD3C0000202DED028B29
:1039C0000025FDF72FF9FEF7E3FFFEF71BFE00F0E1
:1039D00013F90122940321464948FDF710F92146C5
:1039E000484C01222046FDF70AF901221103204626
:1039F000FDF705F9444901200870FEF7E7FD43A0F3
:103A0000FFF746FB00231A460121022000F0BAF816
:103A1000FCF7F0FE58B940A0FFF73AFB4FF47A7478
:103A20002046FCF7D5FFFCF7E5FE0028F8D03FA0C4
:103A3000FFF72EFB00F014F94FF4FA70FCF7C8FF03
:103A4000062000F0F7F83E4C606061683DA0FFF78B
:103A50001FFB9FED3F8A032000F0ECF806466068EC
:103A6000301A00EE100A2068B8EEC00A60EE080AAC
:103A700000EE100AB8EEC00A80EE801A84ED021A39
:103A800094ED020A10EE100AFCF7DDFB41EC100B7E
:103A9000314653EC102B2FA0FFF7FAFA0A20FCF75F
:103AA00097FF274A012308320421032000F06AF817
:103AB000C820FCF78DFFFEF751FD012808D1062034
:103AC00000F0B8F8606061681EA0FFF7E1FA012518
:103AD000FEF760FD0128BED17DB1062000F0AAF8F6
:103AE0006168401A4FF47A714843642190FBF1F009
:103AF000206021681DA0FFF7CBFA0025ABE700008E
:103B000000040240001002401C0000205374617247
:103B10007421210A00000000BBF1C8A1B2BBB5BDF1
:103B20002041443731393020210A0000BCECB2E298
:103B3000B5BD202041443731393020210A00000032
:103B4000000000207A65726F3A25640A00000000C8
:103B500000007A445368656172466F726365A3BA68
:103B600025642D3E252E32660A00000077656967C0
:103B700068745F70726F706F7274696F6E3A2564EB
:103B80000A000000F8B5154600228DF800209A06BC
:103B9000174B140E154A1A6004F10B02C3F80520E6
:103BA000197158720B2219460020FCF7A5FE8DF8FA
:103BB0000000621C2946FCF79FFE0E4E0C498DF852
:103BC000000033460A2201F10C00FEF76BFC0848A6
:103BD0003346224629460C30FEF764FC044833463F
:103BE000012269460C30FEF75DFCF8BD535A485976
:103BF00030000020FFFF0F0010B5FEF75DFEFFF75D
:103C000055F8002211462E20FDF76CF82E20FDF706
:103C10005BF8BDE8104001A0FFF73ABA7374657015
:103C20007065725F496E6974207375636365737341
:103C300021210A0070B5002506462C460AE000BF87
:103C4000FCF74CFE03210846FCF7AAFD641C05EBBB
:103C5000D005E4B2B442F3D3B5FBF6F070BD00007A
:103C600010B500210420FCF770FD07210020FCF7AF
:103C7000E3FD00210520FCF768FD0020FCF77CFD3A
:103C8000094903220120FCF709FEFCF727FE032166
:103C90000846FCF785FDFCF721FE0321BDE8104036
:103CA0000846FCF77DBD0000FF830800005EBCE213
:103CB000613FDD83C29C7E20A3FD1F419DC3217F08
:103CC000FCA2401E5F01E3BD3E6082DC237D9FC1FC
:103CD000421CFEA0E1BF5D0380DE3C62BEE0025CF0
:103CE000DF81633D7C22C09E1D43A1FF4618FAA4DC
:103CF00027799BC584DA3866E5BB5907DB856739C8
:103D0000BAE406581947A5FB7826C49A653BD987BB
:103D1000045AB8E6A7F91B45C6987A24F8A6441AAF
:103D200099C7257B3A6486D85B05E7B98CD2306E9B
:103D3000EDB3510F4E10F2AC2F7193CD114FADF387
:103D4000702ECC92D38D6F31B2EC0E50AFF1134D7B
:103D5000CE90722C6D33D18F0C52B0EE326C8ED06F
:103D6000530DEFB1F0AE4C1291CF2D73CA9476285B
:103D7000ABF517490856B4EA6937D58B5709EBB547
:103D800036688AD495CB2977F4AA4816E9B7550B3B
:103D900088D6346A2B7597C94A14F6A8742AC8962F
:103DA000154BA9F7B6E80A54D7896B350000000017
:103DB00000000000010203040607080900000000DB
:103DC00001020304E43D0008000000203000000070
:103DD000D0300008143E000830000020F00500003C
:103DE000E030000846140000000000000000000061
:103DF0000100000010000000000000000024F4009A
:103E0000010014000000000000000000000000009D
:043E100000000000AE
:040000050800018965
:00000001FF
